{
  "address": "0xc28e64c4e5f8ded4ec20830da141dd5c0333496d",
  "abi": [
    {
      "inputs": [
        {
          "internalType": "address",
          "name": "_vrfCoordinator",
          "type": "address"
        },
        {
          "internalType": "address",
          "name": "_link",
          "type": "address"
        },
        {
          "internalType": "bytes32",
          "name": "_keyHash",
          "type": "bytes32"
        },
        {
          "internalType": "uint256",
          "name": "_fee",
          "type": "uint256"
        }
      ],
      "stateMutability": "nonpayable",
      "type": "constructor"
    },
    {
      "anonymous": false,
      "inputs": [
        {
          "indexed": true,
          "internalType": "address",
          "name": "owner",
          "type": "address"
        },
        {
          "indexed": true,
          "internalType": "address",
          "name": "approved",
          "type": "address"
        },
        {
          "indexed": true,
          "internalType": "uint256",
          "name": "tokenId",
          "type": "uint256"
        }
      ],
      "name": "Approval",
      "type": "event"
    },
    {
      "anonymous": false,
      "inputs": [
        {
          "indexed": true,
          "internalType": "address",
          "name": "owner",
          "type": "address"
        },
        {
          "indexed": true,
          "internalType": "address",
          "name": "operator",
          "type": "address"
        },
        {
          "indexed": false,
          "internalType": "bool",
          "name": "approved",
          "type": "bool"
        }
      ],
      "name": "ApprovalForAll",
      "type": "event"
    },
    {
      "anonymous": false,
      "inputs": [
        {
          "indexed": false,
          "internalType": "address",
          "name": "winner",
          "type": "address"
        }
      ],
      "name": "NewWinner",
      "type": "event"
    },
    {
      "anonymous": false,
      "inputs": [
        {
          "indexed": true,
          "internalType": "address",
          "name": "from",
          "type": "address"
        },
        {
          "indexed": true,
          "internalType": "address",
          "name": "to",
          "type": "address"
        },
        {
          "indexed": true,
          "internalType": "uint256",
          "name": "tokenId",
          "type": "uint256"
        }
      ],
      "name": "Transfer",
      "type": "event"
    },
    {
      "inputs": [
        {
          "internalType": "address",
          "name": "to",
          "type": "address"
        },
        {
          "internalType": "uint256",
          "name": "tokenId",
          "type": "uint256"
        }
      ],
      "name": "approve",
      "outputs": [],
      "stateMutability": "nonpayable",
      "type": "function"
    },
    {
      "inputs": [
        {
          "internalType": "address",
          "name": "owner",
          "type": "address"
        }
      ],
      "name": "balanceOf",
      "outputs": [
        {
          "internalType": "uint256",
          "name": "",
          "type": "uint256"
        }
      ],
      "stateMutability": "view",
      "type": "function"
    },
    {
      "inputs": [],
      "name": "baseAmount",
      "outputs": [
        {
          "internalType": "uint256",
          "name": "",
          "type": "uint256"
        }
      ],
      "stateMutability": "view",
      "type": "function"
    },
    {
      "inputs": [],
      "name": "baseURI",
      "outputs": [
        {
          "internalType": "string",
          "name": "",
          "type": "string"
        }
      ],
      "stateMutability": "view",
      "type": "function"
    },
    {
      "inputs": [],
      "name": "currentMinter",
      "outputs": [
        {
          "internalType": "address",
          "name": "",
          "type": "address"
        }
      ],
      "stateMutability": "view",
      "type": "function"
    },
    {
      "inputs": [
        {
          "internalType": "uint256",
          "name": "tokenId",
          "type": "uint256"
        }
      ],
      "name": "getApproved",
      "outputs": [
        {
          "internalType": "address",
          "name": "",
          "type": "address"
        }
      ],
      "stateMutability": "view",
      "type": "function"
    },
    {
      "inputs": [],
      "name": "getCurrentMinter",
      "outputs": [
        {
          "internalType": "address",
          "name": "",
          "type": "address"
        }
      ],
      "stateMutability": "nonpayable",
      "type": "function"
    },
    {
      "inputs": [
        {
          "internalType": "uint256",
          "name": "userProvidedSeed",
          "type": "uint256"
        }
      ],
      "name": "getRandomNumber",
      "outputs": [
        {
          "internalType": "bytes32",
          "name": "requestId",
          "type": "bytes32"
        }
      ],
      "stateMutability": "nonpayable",
      "type": "function"
    },
    {
      "inputs": [
        {
          "internalType": "address",
          "name": "owner",
          "type": "address"
        },
        {
          "internalType": "address",
          "name": "operator",
          "type": "address"
        }
      ],
      "name": "isApprovedForAll",
      "outputs": [
        {
          "internalType": "bool",
          "name": "",
          "type": "bool"
        }
      ],
      "stateMutability": "view",
      "type": "function"
    },
    {
      "inputs": [
        {
          "internalType": "uint256",
          "name": "",
          "type": "uint256"
        }
      ],
      "name": "isRequestId",
      "outputs": [
        {
          "internalType": "bool",
          "name": "",
          "type": "bool"
        }
      ],
      "stateMutability": "view",
      "type": "function"
    },
    {
      "inputs": [
        {
          "internalType": "address",
          "name": "",
          "type": "address"
        }
      ],
      "name": "isStaking",
      "outputs": [
        {
          "internalType": "bool",
          "name": "",
          "type": "bool"
        }
      ],
      "stateMutability": "view",
      "type": "function"
    },
    {
      "inputs": [
        {
          "internalType": "string",
          "name": "_url",
          "type": "string"
        },
        {
          "internalType": "string",
          "name": "_title",
          "type": "string"
        }
      ],
      "name": "mint",
      "outputs": [],
      "stateMutability": "nonpayable",
      "type": "function"
    },
    {
      "inputs": [],
      "name": "name",
      "outputs": [
        {
          "internalType": "string",
          "name": "",
          "type": "string"
        }
      ],
      "stateMutability": "view",
      "type": "function"
    },
    {
      "inputs": [
        {
          "internalType": "bytes32",
          "name": "",
          "type": "bytes32"
        }
      ],
      "name": "nonces",
      "outputs": [
        {
          "internalType": "uint256",
          "name": "",
          "type": "uint256"
        }
      ],
      "stateMutability": "view",
      "type": "function"
    },
    {
      "inputs": [],
      "name": "owner",
      "outputs": [
        {
          "internalType": "address",
          "name": "",
          "type": "address"
        }
      ],
      "stateMutability": "view",
      "type": "function"
    },
    {
      "inputs": [
        {
          "internalType": "uint256",
          "name": "tokenId",
          "type": "uint256"
        }
      ],
      "name": "ownerOf",
      "outputs": [
        {
          "internalType": "address",
          "name": "",
          "type": "address"
        }
      ],
      "stateMutability": "view",
      "type": "function"
    },
    {
      "inputs": [
        {
          "internalType": "string",
          "name": "_URL",
          "type": "string"
        },
        {
          "internalType": "string",
          "name": "_title",
          "type": "string"
        }
      ],
      "name": "photoMint",
      "outputs": [],
      "stateMutability": "nonpayable",
      "type": "function"
    },
    {
      "inputs": [],
      "name": "photoNFT",
      "outputs": [
        {
          "internalType": "contract PhotoNFT",
          "name": "",
          "type": "address"
        }
      ],
      "stateMutability": "view",
      "type": "function"
    },
    {
      "inputs": [],
      "name": "randomResult",
      "outputs": [
        {
          "internalType": "uint256",
          "name": "",
          "type": "uint256"
        }
      ],
      "stateMutability": "view",
      "type": "function"
    },
    {
      "inputs": [
        {
          "internalType": "bytes32",
          "name": "requestId",
          "type": "bytes32"
        },
        {
          "internalType": "uint256",
          "name": "randomness",
          "type": "uint256"
        }
      ],
      "name": "rawFulfillRandomness",
      "outputs": [],
      "stateMutability": "nonpayable",
      "type": "function"
    },
    {
      "inputs": [
        {
          "internalType": "address",
          "name": "from",
          "type": "address"
        },
        {
          "internalType": "address",
          "name": "to",
          "type": "address"
        },
        {
          "internalType": "uint256",
          "name": "tokenId",
          "type": "uint256"
        }
      ],
      "name": "safeTransferFrom",
      "outputs": [],
      "stateMutability": "nonpayable",
      "type": "function"
    },
    {
      "inputs": [
        {
          "internalType": "address",
          "name": "from",
          "type": "address"
        },
        {
          "internalType": "address",
          "name": "to",
          "type": "address"
        },
        {
          "internalType": "uint256",
          "name": "tokenId",
          "type": "uint256"
        },
        {
          "internalType": "bytes",
          "name": "_data",
          "type": "bytes"
        }
      ],
      "name": "safeTransferFrom",
      "outputs": [],
      "stateMutability": "nonpayable",
      "type": "function"
    },
    {
      "inputs": [
        {
          "internalType": "address",
          "name": "operator",
          "type": "address"
        },
        {
          "internalType": "bool",
          "name": "approved",
          "type": "bool"
        }
      ],
      "name": "setApprovalForAll",
      "outputs": [],
      "stateMutability": "nonpayable",
      "type": "function"
    },
    {
      "inputs": [],
      "name": "stakeETH",
      "outputs": [],
      "stateMutability": "payable",
      "type": "function"
    },
    {
      "inputs": [
        {
          "internalType": "uint256",
          "name": "",
          "type": "uint256"
        }
      ],
      "name": "stakers",
      "outputs": [
        {
          "internalType": "address",
          "name": "",
          "type": "address"
        }
      ],
      "stateMutability": "view",
      "type": "function"
    },
    {
      "inputs": [
        {
          "internalType": "bytes4",
          "name": "interfaceId",
          "type": "bytes4"
        }
      ],
      "name": "supportsInterface",
      "outputs": [
        {
          "internalType": "bool",
          "name": "",
          "type": "bool"
        }
      ],
      "stateMutability": "view",
      "type": "function"
    },
    {
      "inputs": [],
      "name": "symbol",
      "outputs": [
        {
          "internalType": "string",
          "name": "",
          "type": "string"
        }
      ],
      "stateMutability": "view",
      "type": "function"
    },
    {
      "inputs": [
        {
          "internalType": "uint256",
          "name": "",
          "type": "uint256"
        }
      ],
      "name": "titles",
      "outputs": [
        {
          "internalType": "string",
          "name": "",
          "type": "string"
        }
      ],
      "stateMutability": "view",
      "type": "function"
    },
    {
      "inputs": [
        {
          "internalType": "uint256",
          "name": "index",
          "type": "uint256"
        }
      ],
      "name": "tokenByIndex",
      "outputs": [
        {
          "internalType": "uint256",
          "name": "",
          "type": "uint256"
        }
      ],
      "stateMutability": "view",
      "type": "function"
    },
    {
      "inputs": [
        {
          "internalType": "address",
          "name": "owner",
          "type": "address"
        },
        {
          "internalType": "uint256",
          "name": "index",
          "type": "uint256"
        }
      ],
      "name": "tokenOfOwnerByIndex",
      "outputs": [
        {
          "internalType": "uint256",
          "name": "",
          "type": "uint256"
        }
      ],
      "stateMutability": "view",
      "type": "function"
    },
    {
      "inputs": [
        {
          "internalType": "uint256",
          "name": "tokenId",
          "type": "uint256"
        }
      ],
      "name": "tokenURI",
      "outputs": [
        {
          "internalType": "string",
          "name": "",
          "type": "string"
        }
      ],
      "stateMutability": "view",
      "type": "function"
    },
    {
      "inputs": [],
      "name": "totalBalance",
      "outputs": [
        {
          "internalType": "uint256",
          "name": "",
          "type": "uint256"
        }
      ],
      "stateMutability": "view",
      "type": "function"
    },
    {
      "inputs": [],
      "name": "totalSupply",
      "outputs": [
        {
          "internalType": "uint256",
          "name": "",
          "type": "uint256"
        }
      ],
      "stateMutability": "view",
      "type": "function"
    },
    {
      "inputs": [
        {
          "internalType": "address",
          "name": "from",
          "type": "address"
        },
        {
          "internalType": "address",
          "name": "to",
          "type": "address"
        },
        {
          "internalType": "uint256",
          "name": "tokenId",
          "type": "uint256"
        }
      ],
      "name": "transferFrom",
      "outputs": [],
      "stateMutability": "nonpayable",
      "type": "function"
    },
    {
      "inputs": [],
      "name": "unstakeETH",
      "outputs": [],
      "stateMutability": "nonpayable",
      "type": "function"
    },
    {
      "inputs": [
        {
          "internalType": "uint256",
          "name": "",
          "type": "uint256"
        }
      ],
      "name": "urls",
      "outputs": [
        {
          "internalType": "string",
          "name": "",
          "type": "string"
        }
      ],
      "stateMutability": "view",
      "type": "function"
    },
    {
      "inputs": [],
      "name": "withdrawLink",
      "outputs": [],
      "stateMutability": "nonpayable",
      "type": "function"
    }
  ],
  "transactionHash": "0x554d75c538a0885a2450209a711055e17a7b8d443dfb60f80586f13654b6d95a",
  "args": [
    "0xdD3782915140c8f3b190B5D67eAc6dc5760C46E9",
    "0xa36085F69e2889c224210F603D836748e7dC0088",
    "0x6c3699283bda56ad74f6b855546325b68d482e983852a7a82979cc4807b641f4",
    "100000000000000000"
  ],
  "solcInputHash": "f16accc60557c120f31b3a2809c4570a",
  "bytecode": "0x60c060405266038d7ea4c6800060105560006019553480156200002157600080fd5b5060405162004ae738038062004ae7833981810160405260808110156200004757600080fd5b81019080805190602001909291908051906020019092919080519060200190929190805190602001909291905050506040518060400160405280600881526020017f50686f746f4e46540000000000000000000000000000000000000000000000008152506040518060400160405280600881526020017f50484f544f4e465400000000000000000000000000000000000000000000000081525085858173ffffffffffffffffffffffffffffffffffffffff1660a08173ffffffffffffffffffffffffffffffffffffffff1660601b815250508073ffffffffffffffffffffffffffffffffffffffff1660808173ffffffffffffffffffffffffffffffffffffffff1660601b8152505050506200016c6301ffc9a760e01b6200024160201b60201c565b8160079080519060200190620001849291906200034a565b5080600890805190602001906200019d9291906200034a565b50620001b66380ac58cd60e01b6200024160201b60201c565b620001ce635b5e139f60e01b6200024160201b60201c565b620001e663780e9d6360e01b6200024160201b60201c565b5050816016819055508060178190555033601360006101000a81548173ffffffffffffffffffffffffffffffffffffffff021916908373ffffffffffffffffffffffffffffffffffffffff16021790555050505050620003f9565b63ffffffff60e01b817bffffffffffffffffffffffffffffffffffffffffffffffffffffffff19161415620002de576040517f08c379a000000000000000000000000000000000000000000000000000000000815260040180806020018281038252601c8152602001807f4552433136353a20696e76616c696420696e746572666163652069640000000081525060200191505060405180910390fd5b6001806000837bffffffffffffffffffffffffffffffffffffffffffffffffffffffff19167bffffffffffffffffffffffffffffffffffffffffffffffffffffffff1916815260200190815260200160002060006101000a81548160ff02191690831515021790555050565b828054600181600116156101000203166002900490600052602060002090601f016020900481019282601f106200038d57805160ff1916838001178555620003be565b82800160010185558215620003be579182015b82811115620003bd578251825591602001919060010190620003a0565b5b509050620003cd9190620003d1565b5090565b620003f691905b80821115620003f2576000816000905550600101620003d8565b5090565b90565b60805160601c60a05160601c6146ab6200043c6000398061207a52806131355250806118c65280611e4d5280611e8a52806124e552806130f952506146ab6000f3fe60806040526004361061021a5760003560e01c806370a0823111610123578063a22cb465116100ab578063c87b56dd1161006f578063c87b56dd146110be578063dceb986d14611172578063e61b28db1461117c578063e985e9c5146111d3578063fd5e6dd11461125c5761021a565b8063a22cb46514610ebe578063a857705914610f1b578063ad7a672f14610f32578063b37217a414610f5d578063b88d4fde14610fac5761021a565b80638dc654a2116100f25780638dc654a214610d2c57806394985ddd14610d4357806395d89b4114610d885780639bac6e8d14610e185780639e317f1214610e6f5761021a565b806370a0823114610a5d578063796676be14610ac25780638aa0fdad14610b765780638da5cb5b14610cd55761021a565b806342619f66116101a65780634f6ccce7116101755780634f6ccce71461073b5780635848d9581461078a5780636352211e146108e95780636c0360eb146109645780636f49712b146109f45761021a565b806342619f661461061757806342842e0e1461064257806342d45d6f146106bd5780634864d140146107105761021a565b806318160ddd116101ed57806318160ddd146103f757806323b872dd14610422578063296d55a31461049d5780632cda1bf7146104f45780632f745c59146105a85761021a565b806301ffc9a71461021f57806306fdde0314610291578063081812fc14610321578063095ea7b31461039c575b600080fd5b34801561022b57600080fd5b506102776004803603602081101561024257600080fd5b8101908080357bffffffffffffffffffffffffffffffffffffffffffffffffffffffff191690602001909291905050506112d7565b604051808215151515815260200191505060405180910390f35b34801561029d57600080fd5b506102a661133f565b6040518080602001828103825283818151815260200191508051906020019080838360005b838110156102e65780820151818401526020810190506102cb565b50505050905090810190601f1680156103135780820380516001836020036101000a031916815260200191505b509250505060405180910390f35b34801561032d57600080fd5b5061035a6004803603602081101561034457600080fd5b81019080803590602001909291905050506113e1565b604051808273ffffffffffffffffffffffffffffffffffffffff1673ffffffffffffffffffffffffffffffffffffffff16815260200191505060405180910390f35b3480156103a857600080fd5b506103f5600480360360408110156103bf57600080fd5b81019080803573ffffffffffffffffffffffffffffffffffffffff1690602001909291908035906020019092919050505061147c565b005b34801561040357600080fd5b5061040c6115c0565b6040518082815260200191505060405180910390f35b34801561042e57600080fd5b5061049b6004803603606081101561044557600080fd5b81019080803573ffffffffffffffffffffffffffffffffffffffff169060200190929190803573ffffffffffffffffffffffffffffffffffffffff169060200190929190803590602001909291905050506115d1565b005b3480156104a957600080fd5b506104b2611647565b604051808273ffffffffffffffffffffffffffffffffffffffff1673ffffffffffffffffffffffffffffffffffffffff16815260200191505060405180910390f35b34801561050057600080fd5b5061052d6004803603602081101561051757600080fd5b8101908080359060200190929190505050611671565b6040518080602001828103825283818151815260200191508051906020019080838360005b8381101561056d578082015181840152602081019050610552565b50505050905090810190601f16801561059a5780820380516001836020036101000a031916815260200191505b509250505060405180910390f35b3480156105b457600080fd5b50610601600480360360408110156105cb57600080fd5b81019080803573ffffffffffffffffffffffffffffffffffffffff1690602001909291908035906020019092919050505061172a565b6040518082815260200191505060405180910390f35b34801561062357600080fd5b5061062c611785565b6040518082815260200191505060405180910390f35b34801561064e57600080fd5b506106bb6004803603606081101561066557600080fd5b81019080803573ffffffffffffffffffffffffffffffffffffffff169060200190929190803573ffffffffffffffffffffffffffffffffffffffff1690602001909291908035906020019092919050505061178b565b005b3480156106c957600080fd5b506106f6600480360360208110156106e057600080fd5b81019080803590602001909291905050506117ab565b604051808215151515815260200191505060405180910390f35b34801561071c57600080fd5b506107256117cb565b6040518082815260200191505060405180910390f35b34801561074757600080fd5b506107746004803603602081101561075e57600080fd5b81019080803590602001909291905050506117d1565b6040518082815260200191505060405180910390f35b34801561079657600080fd5b506108e7600480360360408110156107ad57600080fd5b81019080803590602001906401000000008111156107ca57600080fd5b8201836020820111156107dc57600080fd5b803590602001918460018302840111640100000000831117156107fe57600080fd5b91908080601f016020809104026020016040519081016040528093929190818152602001838380828437600081840152601f19601f8201169050808301925050505050505091929192908035906020019064010000000081111561086157600080fd5b82018360208201111561087357600080fd5b8035906020019184600183028401116401000000008311171561089557600080fd5b91908080601f016020809104026020016040519081016040528093929190818152602001838380828437600081840152601f19601f8201169050808301925050505050505091929192905050506117f4565b005b3480156108f557600080fd5b506109226004803603602081101561090c57600080fd5b8101908080359060200190929190505050611a07565b604051808273ffffffffffffffffffffffffffffffffffffffff1673ffffffffffffffffffffffffffffffffffffffff16815260200191505060405180910390f35b34801561097057600080fd5b50610979611a3e565b6040518080602001828103825283818151815260200191508051906020019080838360005b838110156109b957808201518184015260208101905061099e565b50505050905090810190601f1680156109e65780820380516001836020036101000a031916815260200191505b509250505060405180910390f35b348015610a0057600080fd5b50610a4360048036036020811015610a1757600080fd5b81019080803573ffffffffffffffffffffffffffffffffffffffff169060200190929190505050611ae0565b604051808215151515815260200191505060405180910390f35b348015610a6957600080fd5b50610aac60048036036020811015610a8057600080fd5b81019080803573ffffffffffffffffffffffffffffffffffffffff169060200190929190505050611b00565b6040518082815260200191505060405180910390f35b348015610ace57600080fd5b50610afb60048036036020811015610ae557600080fd5b8101908080359060200190929190505050611bd5565b6040518080602001828103825283818151815260200191508051906020019080838360005b83811015610b3b578082015181840152602081019050610b20565b50505050905090810190601f168015610b685780820380516001836020036101000a031916815260200191505b509250505060405180910390f35b348015610b8257600080fd5b50610cd360048036036040811015610b9957600080fd5b8101908080359060200190640100000000811115610bb657600080fd5b820183602082011115610bc857600080fd5b80359060200191846001830284011164010000000083111715610bea57600080fd5b91908080601f016020809104026020016040519081016040528093929190818152602001838380828437600081840152601f19601f82011690508083019250505050505050919291929080359060200190640100000000811115610c4d57600080fd5b820183602082011115610c5f57600080fd5b80359060200191846001830284011164010000000083111715610c8157600080fd5b91908080601f016020809104026020016040519081016040528093929190818152602001838380828437600081840152601f19601f820116905080830192505050505050509192919290505050611c8e565b005b348015610ce157600080fd5b50610cea611e25565b604051808273ffffffffffffffffffffffffffffffffffffffff1673ffffffffffffffffffffffffffffffffffffffff16815260200191505060405180910390f35b348015610d3857600080fd5b50610d41611e4b565b005b348015610d4f57600080fd5b50610d8660048036036040811015610d6657600080fd5b810190808035906020019092919080359060200190929190505050612078565b005b348015610d9457600080fd5b50610d9d612147565b6040518080602001828103825283818151815260200191508051906020019080838360005b83811015610ddd578082015181840152602081019050610dc2565b50505050905090810190601f168015610e0a5780820380516001836020036101000a031916815260200191505b509250505060405180910390f35b348015610e2457600080fd5b50610e2d6121e9565b604051808273ffffffffffffffffffffffffffffffffffffffff1673ffffffffffffffffffffffffffffffffffffffff16815260200191505060405180910390f35b348015610e7b57600080fd5b50610ea860048036036020811015610e9257600080fd5b810190808035906020019092919050505061220f565b6040518082815260200191505060405180910390f35b348015610eca57600080fd5b50610f1960048036036040811015610ee157600080fd5b81019080803573ffffffffffffffffffffffffffffffffffffffff169060200190929190803515159060200190929190505050612227565b005b348015610f2757600080fd5b50610f306123df565b005b348015610f3e57600080fd5b50610f476124d8565b6040518082815260200191505060405180910390f35b348015610f6957600080fd5b50610f9660048036036020811015610f8057600080fd5b81019080803590602001909291905050506124de565b6040518082815260200191505060405180910390f35b348015610fb857600080fd5b506110bc60048036036080811015610fcf57600080fd5b81019080803573ffffffffffffffffffffffffffffffffffffffff169060200190929190803573ffffffffffffffffffffffffffffffffffffffff169060200190929190803590602001909291908035906020019064010000000081111561103657600080fd5b82018360208201111561104857600080fd5b8035906020019184600183028401116401000000008311171561106a57600080fd5b91908080601f016020809104026020016040519081016040528093929190818152602001838380828437600081840152601f19601f820116905080830192505050505050509192919290505050612627565b005b3480156110ca57600080fd5b506110f7600480360360208110156110e157600080fd5b810190808035906020019092919050505061269f565b6040518080602001828103825283818151815260200191508051906020019080838360005b8381101561113757808201518184015260208101905061111c565b50505050905090810190601f1680156111645780820380516001836020036101000a031916815260200191505b509250505060405180910390f35b61117a612988565b005b34801561118857600080fd5b50611191612b8c565b604051808273ffffffffffffffffffffffffffffffffffffffff1673ffffffffffffffffffffffffffffffffffffffff16815260200191505060405180910390f35b3480156111df57600080fd5b50611242600480360360408110156111f657600080fd5b81019080803573ffffffffffffffffffffffffffffffffffffffff169060200190929190803573ffffffffffffffffffffffffffffffffffffffff169060200190929190505050612bb2565b604051808215151515815260200191505060405180910390f35b34801561126857600080fd5b506112956004803603602081101561127f57600080fd5b8101908080359060200190929190505050612c46565b604051808273ffffffffffffffffffffffffffffffffffffffff1673ffffffffffffffffffffffffffffffffffffffff16815260200191505060405180910390f35b600060016000837bffffffffffffffffffffffffffffffffffffffffffffffffffffffff19167bffffffffffffffffffffffffffffffffffffffffffffffffffffffff1916815260200190815260200160002060009054906101000a900460ff169050919050565b606060078054600181600116156101000203166002900480601f0160208091040260200160405190810160405280929190818152602001828054600181600116156101000203166002900480156113d75780601f106113ac576101008083540402835291602001916113d7565b820191906000526020600020905b8154815290600101906020018083116113ba57829003601f168201915b5050505050905090565b60006113ec82612c82565b611441576040517f08c379a000000000000000000000000000000000000000000000000000000000815260040180806020018281038252602c8152602001806145a0602c913960400191505060405180910390fd5b6005600083815260200190815260200160002060009054906101000a900473ffffffffffffffffffffffffffffffffffffffff169050919050565b600061148782611a07565b90508073ffffffffffffffffffffffffffffffffffffffff168373ffffffffffffffffffffffffffffffffffffffff16141561150e576040517f08c379a00000000000000000000000000000000000000000000000000000000081526004018080602001828103825260218152602001806146246021913960400191505060405180910390fd5b8073ffffffffffffffffffffffffffffffffffffffff1661152d612c9f565b73ffffffffffffffffffffffffffffffffffffffff16148061155c575061155b81611556612c9f565b612bb2565b5b6115b1576040517f08c379a00000000000000000000000000000000000000000000000000000000081526004018080602001828103825260388152602001806144f36038913960400191505060405180910390fd5b6115bb8383612ca7565b505050565b60006115cc6003612d60565b905090565b6115e26115dc612c9f565b82612d75565b611637576040517f08c379a00000000000000000000000000000000000000000000000000000000081526004018080602001828103825260318152602001806146456031913960400191505060405180910390fd5b611642838383612e69565b505050565b6000601360009054906101000a900473ffffffffffffffffffffffffffffffffffffffff16905090565b600c818154811061167e57fe5b906000526020600020016000915090508054600181600116156101000203166002900480601f0160208091040260200160405190810160405280929190818152602001828054600181600116156101000203166002900480156117225780601f106116f757610100808354040283529160200191611722565b820191906000526020600020905b81548152906001019060200180831161170557829003601f168201915b505050505081565b600061177d82600260008673ffffffffffffffffffffffffffffffffffffffff1673ffffffffffffffffffffffffffffffffffffffff1681526020019081526020016000206130ac90919063ffffffff16565b905092915050565b60185481565b6117a683838360405180602001604052806000815250612627565b505050565b60156020528060005260406000206000915054906101000a900460ff1681565b60105481565b6000806117e88360036130c690919063ffffffff16565b50905080915050919050565b601360009054906101000a900473ffffffffffffffffffffffffffffffffffffffff1673ffffffffffffffffffffffffffffffffffffffff163373ffffffffffffffffffffffffffffffffffffffff16146118b7576040517f08c379a000000000000000000000000000000000000000000000000000000000815260040180806020018281038252600b8152602001807f43414e4e4f54204d494e5400000000000000000000000000000000000000000081525060200191505060405180910390fd5b6118c18282611c8e565b6017547f000000000000000000000000000000000000000000000000000000000000000073ffffffffffffffffffffffffffffffffffffffff166370a08231306040518263ffffffff1660e01b8152600401808273ffffffffffffffffffffffffffffffffffffffff1673ffffffffffffffffffffffffffffffffffffffff16815260200191505060206040518083038186803b15801561196157600080fd5b505afa158015611975573d6000803e3d6000fd5b505050506040513d602081101561198b57600080fd5b8101908080519060200190929190505050116119f2576040517f08c379a000000000000000000000000000000000000000000000000000000000815260040180806020018281038252602b815260200180614476602b913960400191505060405180910390fd5b611a02601654601754602a6130f5565b505050565b6000611a37826040518060600160405280602981526020016145556029913960036133009092919063ffffffff16565b9050919050565b6060600a8054600181600116156101000203166002900480601f016020809104026020016040519081016040528092919081815260200182805460018160011615610100020316600290048015611ad65780601f10611aab57610100808354040283529160200191611ad6565b820191906000526020600020905b815481529060010190602001808311611ab957829003601f168201915b5050505050905090565b60146020528060005260406000206000915054906101000a900460ff1681565b60008073ffffffffffffffffffffffffffffffffffffffff168273ffffffffffffffffffffffffffffffffffffffff161415611b87576040517f08c379a000000000000000000000000000000000000000000000000000000000815260040180806020018281038252602a81526020018061452b602a913960400191505060405180910390fd5b611bce600260008473ffffffffffffffffffffffffffffffffffffffff1673ffffffffffffffffffffffffffffffffffffffff16815260200190815260200160002061331f565b9050919050565b600b8181548110611be257fe5b906000526020600020016000915090508054600181600116156101000203166002900480601f016020809104026020016040519081016040528092919081815260200182805460018160011615610100020316600290048015611c865780601f10611c5b57610100808354040283529160200191611c86565b820191906000526020600020905b815481529060010190602001808311611c6957829003601f168201915b505050505081565b600d826040518082805190602001908083835b60208310611cc45780518252602082019150602081019050602083039250611ca1565b6001836020036101000a038019825116818451168082178552505050505050905001915050908152602001604051809103902060009054906101000a900460ff1615611d0f57600080fd5b600b82908060018154018082558091505060019003906000526020600020016000909190919091509080519060200190611d4a929190614358565b50600c81908060018154018082558091505060019003906000526020600020016000909190919091509080519060200190611d86929190614358565b5060006001600b80549050039050611d9e3382613334565b6001600d846040518082805190602001908083835b60208310611dd65780518252602082019150602081019050602083039250611db3565b6001836020036101000a038019825116818451168082178552505050505050905001915050908152602001604051809103902060006101000a81548160ff021916908315150217905550505050565b600f60009054906101000a900473ffffffffffffffffffffffffffffffffffffffff1681565b7f000000000000000000000000000000000000000000000000000000000000000073ffffffffffffffffffffffffffffffffffffffff1663a9059cbb337f000000000000000000000000000000000000000000000000000000000000000073ffffffffffffffffffffffffffffffffffffffff166370a08231306040518263ffffffff1660e01b8152600401808273ffffffffffffffffffffffffffffffffffffffff1673ffffffffffffffffffffffffffffffffffffffff16815260200191505060206040518083038186803b158015611f2557600080fd5b505afa158015611f39573d6000803e3d6000fd5b505050506040513d6020811015611f4f57600080fd5b81019080805190602001909291905050506040518363ffffffff1660e01b8152600401808373ffffffffffffffffffffffffffffffffffffffff1673ffffffffffffffffffffffffffffffffffffffff16815260200182815260200192505050602060405180830381600087803b158015611fc957600080fd5b505af1158015611fdd573d6000803e3d6000fd5b505050506040513d6020811015611ff357600080fd5b8101908080519060200190929190505050612076576040517f08c379a00000000000000000000000000000000000000000000000000000000081526004018080602001828103825260128152602001807f556e61626c6520746f207472616e73666572000000000000000000000000000081525060200191505060405180910390fd5b565b7f000000000000000000000000000000000000000000000000000000000000000073ffffffffffffffffffffffffffffffffffffffff163373ffffffffffffffffffffffffffffffffffffffff1614612139576040517f08c379a000000000000000000000000000000000000000000000000000000000815260040180806020018281038252601f8152602001807f4f6e6c7920565246436f6f7264696e61746f722063616e2066756c66696c6c0081525060200191505060405180910390fd5b6121438282613528565b5050565b606060088054600181600116156101000203166002900480601f0160208091040260200160405190810160405280929190818152602001828054600181600116156101000203166002900480156121df5780601f106121b4576101008083540402835291602001916121df565b820191906000526020600020905b8154815290600101906020018083116121c257829003601f168201915b5050505050905090565b601360009054906101000a900473ffffffffffffffffffffffffffffffffffffffff1681565b60006020528060005260406000206000915090505481565b61222f612c9f565b73ffffffffffffffffffffffffffffffffffffffff168273ffffffffffffffffffffffffffffffffffffffff1614156122d0576040517f08c379a00000000000000000000000000000000000000000000000000000000081526004018080602001828103825260198152602001807f4552433732313a20617070726f766520746f2063616c6c65720000000000000081525060200191505060405180910390fd5b80600660006122dd612c9f565b73ffffffffffffffffffffffffffffffffffffffff1673ffffffffffffffffffffffffffffffffffffffff16815260200190815260200160002060008473ffffffffffffffffffffffffffffffffffffffff1673ffffffffffffffffffffffffffffffffffffffff16815260200190815260200160002060006101000a81548160ff0219169083151502179055508173ffffffffffffffffffffffffffffffffffffffff1661238a612c9f565b73ffffffffffffffffffffffffffffffffffffffff167f17307eab39ab6107e8899845ad3d59bd9653f200f220920489ca2b5937696c3183604051808215151515815260200191505060405180910390a35050565b601460003373ffffffffffffffffffffffffffffffffffffffff1673ffffffffffffffffffffffffffffffffffffffff16815260200190815260200160002060009054906101000a900460ff1661243557600080fd5b3373ffffffffffffffffffffffffffffffffffffffff166108fc6010549081150290604051600060405180830381858888f1935050505015801561247d573d6000803e3d6000fd5b506000601460003373ffffffffffffffffffffffffffffffffffffffff1673ffffffffffffffffffffffffffffffffffffffff16815260200190815260200160002060006101000a81548160ff021916908315150217905550565b60115481565b60006017547f000000000000000000000000000000000000000000000000000000000000000073ffffffffffffffffffffffffffffffffffffffff166370a08231306040518263ffffffff1660e01b8152600401808273ffffffffffffffffffffffffffffffffffffffff1673ffffffffffffffffffffffffffffffffffffffff16815260200191505060206040518083038186803b15801561258057600080fd5b505afa158015612594573d6000803e3d6000fd5b505050506040513d60208110156125aa57600080fd5b810190808051906020019092919050505011612611576040517f08c379a000000000000000000000000000000000000000000000000000000000815260040180806020018281038252602b815260200180614476602b913960400191505060405180910390fd5b612620601654601754846130f5565b9050919050565b612638612632612c9f565b83612d75565b61268d576040517f08c379a00000000000000000000000000000000000000000000000000000000081526004018080602001828103825260318152602001806146456031913960400191505060405180910390fd5b61269984848484613649565b50505050565b60606126aa82612c82565b6126ff576040517f08c379a000000000000000000000000000000000000000000000000000000000815260040180806020018281038252602f8152602001806145f5602f913960400191505060405180910390fd5b6060600960008481526020019081526020016000208054600181600116156101000203166002900480601f0160208091040260200160405190810160405280929190818152602001828054600181600116156101000203166002900480156127a85780601f1061277d576101008083540402835291602001916127a8565b820191906000526020600020905b81548152906001019060200180831161278b57829003601f168201915b505050505090506000600a80546001816001161561010002031660029004905014156127d75780915050612983565b6000815111156128b057600a8160405160200180838054600181600116156101000203166002900480156128425780601f10612820576101008083540402835291820191612842565b820191906000526020600020905b81548152906001019060200180831161282e575b505082805190602001908083835b602083106128735780518252602082019150602081019050602083039250612850565b6001836020036101000a03801982511681845116808217855250505050505090500192505050604051602081830303815290604052915050612983565b600a6128bb846136bb565b60405160200180838054600181600116156101000203166002900480156129195780601f106128f7576101008083540402835291820191612919565b820191906000526020600020905b815481529060010190602001808311612905575b505082805190602001908083835b6020831061294a5780518252602082019150602081019050602083039250612927565b6001836020036101000a038019825116818451168082178552505050505050905001925050506040516020818303038152906040529150505b919050565b60105434146129ff576040517f08c379a00000000000000000000000000000000000000000000000000000000081526004018080602001828103825260158152602001807f616d6f756e74206d75737420657175616c20666565000000000000000000000081525060200191505060405180910390fd5b601460003373ffffffffffffffffffffffffffffffffffffffff1673ffffffffffffffffffffffffffffffffffffffff16815260200190815260200160002060009054906101000a900460ff1615612abf576040517f08c379a000000000000000000000000000000000000000000000000000000000815260040180806020018281038252600f8152602001807f616c7265616479207374616b696e67000000000000000000000000000000000081525060200191505060405180910390fd5b6012339080600181540180825580915050600190039060005260206000200160009091909190916101000a81548173ffffffffffffffffffffffffffffffffffffffff021916908373ffffffffffffffffffffffffffffffffffffffff160217905550346011600082825401925050819055506001601460003373ffffffffffffffffffffffffffffffffffffffff1673ffffffffffffffffffffffffffffffffffffffff16815260200190815260200160002060006101000a81548160ff021916908315150217905550565b600e60009054906101000a900473ffffffffffffffffffffffffffffffffffffffff1681565b6000600660008473ffffffffffffffffffffffffffffffffffffffff1673ffffffffffffffffffffffffffffffffffffffff16815260200190815260200160002060008373ffffffffffffffffffffffffffffffffffffffff1673ffffffffffffffffffffffffffffffffffffffff16815260200190815260200160002060009054906101000a900460ff16905092915050565b60128181548110612c5357fe5b906000526020600020016000915054906101000a900473ffffffffffffffffffffffffffffffffffffffff1681565b6000612c9882600361380290919063ffffffff16565b9050919050565b600033905090565b816005600083815260200190815260200160002060006101000a81548173ffffffffffffffffffffffffffffffffffffffff021916908373ffffffffffffffffffffffffffffffffffffffff160217905550808273ffffffffffffffffffffffffffffffffffffffff16612d1a83611a07565b73ffffffffffffffffffffffffffffffffffffffff167f8c5be1e5ebec7d5bd14f71427d1e84f3dd0314c0f7b2291e5b200ac8c7c3b92560405160405180910390a45050565b6000612d6e8260000161381c565b9050919050565b6000612d8082612c82565b612dd5576040517f08c379a000000000000000000000000000000000000000000000000000000000815260040180806020018281038252602c8152602001806144c7602c913960400191505060405180910390fd5b6000612de083611a07565b90508073ffffffffffffffffffffffffffffffffffffffff168473ffffffffffffffffffffffffffffffffffffffff161480612e4f57508373ffffffffffffffffffffffffffffffffffffffff16612e37846113e1565b73ffffffffffffffffffffffffffffffffffffffff16145b80612e605750612e5f8185612bb2565b5b91505092915050565b8273ffffffffffffffffffffffffffffffffffffffff16612e8982611a07565b73ffffffffffffffffffffffffffffffffffffffff1614612ef5576040517f08c379a00000000000000000000000000000000000000000000000000000000081526004018080602001828103825260298152602001806145cc6029913960400191505060405180910390fd5b600073ffffffffffffffffffffffffffffffffffffffff168273ffffffffffffffffffffffffffffffffffffffff161415612f7b576040517f08c379a00000000000000000000000000000000000000000000000000000000081526004018080602001828103825260248152602001806144526024913960400191505060405180910390fd5b612f8683838361382d565b612f91600082612ca7565b612fe281600260008673ffffffffffffffffffffffffffffffffffffffff1673ffffffffffffffffffffffffffffffffffffffff16815260200190815260200160002061383290919063ffffffff16565b5061303481600260008573ffffffffffffffffffffffffffffffffffffffff1673ffffffffffffffffffffffffffffffffffffffff16815260200190815260200160002061384c90919063ffffffff16565b5061304b818360036138669092919063ffffffff16565b50808273ffffffffffffffffffffffffffffffffffffffff168473ffffffffffffffffffffffffffffffffffffffff167fddf252ad1be2c89b69c2b068fc378daa952ba7f163c4a11628f55a4df523b3ef60405160405180910390a4505050565b60006130bb836000018361389b565b60001c905092915050565b6000806000806130d9866000018661391e565b915091508160001c8160001c8090509350935050509250929050565b60007f000000000000000000000000000000000000000000000000000000000000000073ffffffffffffffffffffffffffffffffffffffff16634000aea07f000000000000000000000000000000000000000000000000000000000000000085878660405160200180838152602001828152602001925050506040516020818303038152906040526040518463ffffffff1660e01b8152600401808473ffffffffffffffffffffffffffffffffffffffff1673ffffffffffffffffffffffffffffffffffffffff16815260200183815260200180602001828103825283818151815260200191508051906020019080838360005b838110156132045780820151818401526020810190506131e9565b50505050905090810190601f1680156132315780820380516001836020036101000a031916815260200191505b50945050505050602060405180830381600087803b15801561325257600080fd5b505af1158015613266573d6000803e3d6000fd5b505050506040513d602081101561327c57600080fd5b81019080805190602001909291905050505060006132ae8584306000808a8152602001908152602001600020546139b7565b90506132d6600160008088815260200190815260200160002054613a3190919063ffffffff16565b600080878152602001908152602001600020819055506132f68582613ab9565b9150509392505050565b6000613313846000018460001b84613af2565b60001c90509392505050565b600061332d82600001613be8565b9050919050565b600073ffffffffffffffffffffffffffffffffffffffff168273ffffffffffffffffffffffffffffffffffffffff1614156133d7576040517f08c379a00000000000000000000000000000000000000000000000000000000081526004018080602001828103825260208152602001807f4552433732313a206d696e7420746f20746865207a65726f206164647265737381525060200191505060405180910390fd5b6133e081612c82565b15613453576040517f08c379a000000000000000000000000000000000000000000000000000000000815260040180806020018281038252601c8152602001807f4552433732313a20746f6b656e20616c7265616479206d696e7465640000000081525060200191505060405180910390fd5b61345f6000838361382d565b6134b081600260008573ffffffffffffffffffffffffffffffffffffffff1673ffffffffffffffffffffffffffffffffffffffff16815260200190815260200160002061384c90919063ffffffff16565b506134c7818360036138669092919063ffffffff16565b50808273ffffffffffffffffffffffffffffffffffffffff16600073ffffffffffffffffffffffffffffffffffffffff167fddf252ad1be2c89b69c2b068fc378daa952ba7f163c4a11628f55a4df523b3ef60405160405180910390a45050565b80601881905550600060016012805490506018548161354357fe5b060390506012818154811061355457fe5b9060005260206000200160009054906101000a900473ffffffffffffffffffffffffffffffffffffffff16601360006101000a81548173ffffffffffffffffffffffffffffffffffffffff021916908373ffffffffffffffffffffffffffffffffffffffff1602179055507ffcd0090a8eb426c754f5529cb82a16921d765142042acb46601b8804e85f966d601360009054906101000a900473ffffffffffffffffffffffffffffffffffffffff16604051808273ffffffffffffffffffffffffffffffffffffffff1673ffffffffffffffffffffffffffffffffffffffff16815260200191505060405180910390a1505050565b613654848484612e69565b61366084848484613bf9565b6136b5576040517f08c379a00000000000000000000000000000000000000000000000000000000081526004018080602001828103825260328152602001806144206032913960400191505060405180910390fd5b50505050565b60606000821415613703576040518060400160405280600181526020017f300000000000000000000000000000000000000000000000000000000000000081525090506137fd565b600082905060005b6000821461372d578080600101915050600a828161372557fe5b04915061370b565b60608167ffffffffffffffff8111801561374657600080fd5b506040519080825280601f01601f1916602001820160405280156137795781602001600182028036833780820191505090505b50905060006001830390508593505b600084146137f557600a848161379a57fe5b0660300160f81b828280600190039350815181106137b457fe5b60200101907effffffffffffffffffffffffffffffffffffffffffffffffffffffffffffff1916908160001a905350600a84816137ed57fe5b049350613788565b819450505050505b919050565b6000613814836000018360001b613e3e565b905092915050565b600081600001805490509050919050565b505050565b6000613844836000018360001b613e61565b905092915050565b600061385e836000018360001b613f49565b905092915050565b6000613892846000018460001b8473ffffffffffffffffffffffffffffffffffffffff1660001b613fb9565b90509392505050565b6000818360000180549050116138fc576040517f08c379a00000000000000000000000000000000000000000000000000000000081526004018080602001828103825260228152602001806143fe6022913960400191505060405180910390fd5b82600001828154811061390b57fe5b9060005260206000200154905092915050565b60008082846000018054905011613980576040517f08c379a000000000000000000000000000000000000000000000000000000000815260040180806020018281038252602281526020018061457e6022913960400191505060405180910390fd5b600084600001848154811061399157fe5b906000526020600020906002020190508060000154816001015492509250509250929050565b600084848484604051602001808581526020018481526020018373ffffffffffffffffffffffffffffffffffffffff1673ffffffffffffffffffffffffffffffffffffffff1681526020018281526020019450505050506040516020818303038152906040528051906020012060001c9050949350505050565b600080828401905083811015613aaf576040517f08c379a000000000000000000000000000000000000000000000000000000000815260040180806020018281038252601b8152602001807f536166654d6174683a206164646974696f6e206f766572666c6f77000000000081525060200191505060405180910390fd5b8091505092915050565b60008282604051602001808381526020018281526020019250505060405160208183030381529060405280519060200120905092915050565b60008084600101600085815260200190815260200160002054905060008114158390613bb9576040517f08c379a00000000000000000000000000000000000000000000000000000000081526004018080602001828103825283818151815260200191508051906020019080838360005b83811015613b7e578082015181840152602081019050613b63565b50505050905090810190601f168015613bab5780820380516001836020036101000a031916815260200191505b509250505060405180910390fd5b50846000016001820381548110613bcc57fe5b9060005260206000209060020201600101549150509392505050565b600081600001805490509050919050565b6000613c1a8473ffffffffffffffffffffffffffffffffffffffff16614095565b613c275760019050613e36565b6060613dbd63150b7a0260e01b613c3c612c9f565b888787604051602401808573ffffffffffffffffffffffffffffffffffffffff1673ffffffffffffffffffffffffffffffffffffffff1681526020018473ffffffffffffffffffffffffffffffffffffffff1673ffffffffffffffffffffffffffffffffffffffff16815260200183815260200180602001828103825283818151815260200191508051906020019080838360005b83811015613cec578082015181840152602081019050613cd1565b50505050905090810190601f168015613d195780820380516001836020036101000a031916815260200191505b5095505050505050604051602081830303815290604052907bffffffffffffffffffffffffffffffffffffffffffffffffffffffff19166020820180517bffffffffffffffffffffffffffffffffffffffffffffffffffffffff8381831617835250505050604051806060016040528060328152602001614420603291398773ffffffffffffffffffffffffffffffffffffffff166140a89092919063ffffffff16565b90506000818060200190516020811015613dd657600080fd5b8101908080519060200190929190505050905063150b7a0260e01b7bffffffffffffffffffffffffffffffffffffffffffffffffffffffff1916817bffffffffffffffffffffffffffffffffffffffffffffffffffffffff191614925050505b949350505050565b600080836001016000848152602001908152602001600020541415905092915050565b60008083600101600084815260200190815260200160002054905060008114613f3d5760006001820390506000600186600001805490500390506000866000018281548110613eac57fe5b9060005260206000200154905080876000018481548110613ec957fe5b9060005260206000200181905550600183018760010160008381526020019081526020016000208190555086600001805480613f0157fe5b60019003818190600052602060002001600090559055866001016000878152602001908152602001600020600090556001945050505050613f43565b60009150505b92915050565b6000613f5583836140c0565b613fae578260000182908060018154018082558091505060019003906000526020600020016000909190919091505582600001805490508360010160008481526020019081526020016000208190555060019050613fb3565b600090505b92915050565b60008084600101600085815260200190815260200160002054905060008114156140605784600001604051806040016040528086815260200185815250908060018154018082558091505060019003906000526020600020906002020160009091909190915060008201518160000155602082015181600101555050846000018054905085600101600086815260200190815260200160002081905550600191505061408e565b8285600001600183038154811061407357fe5b90600052602060002090600202016001018190555060009150505b9392505050565b600080823b905060008111915050919050565b60606140b784846000856140e3565b90509392505050565b600080836001016000848152602001908152602001600020541415905092915050565b60608247101561413e576040517f08c379a00000000000000000000000000000000000000000000000000000000081526004018080602001828103825260268152602001806144a16026913960400191505060405180910390fd5b61414785614095565b6141b9576040517f08c379a000000000000000000000000000000000000000000000000000000000815260040180806020018281038252601d8152602001807f416464726573733a2063616c6c20746f206e6f6e2d636f6e747261637400000081525060200191505060405180910390fd5b600060608673ffffffffffffffffffffffffffffffffffffffff1685876040518082805190602001908083835b6020831061420957805182526020820191506020810190506020830392506141e6565b6001836020036101000a03801982511681845116808217855250505050505090500191505060006040518083038185875af1925050503d806000811461426b576040519150601f19603f3d011682016040523d82523d6000602084013e614270565b606091505b509150915061428082828661428c565b92505050949350505050565b6060831561429c57829050614351565b6000835111156142af5782518084602001fd5b816040517f08c379a00000000000000000000000000000000000000000000000000000000081526004018080602001828103825283818151815260200191508051906020019080838360005b838110156143165780820151818401526020810190506142fb565b50505050905090810190601f1680156143435780820380516001836020036101000a031916815260200191505b509250505060405180910390fd5b9392505050565b828054600181600116156101000203166002900490600052602060002090601f016020900481019282601f1061439957805160ff19168380011785556143c7565b828001600101855582156143c7579182015b828111156143c65782518255916020019190600101906143ab565b5b5090506143d491906143d8565b5090565b6143fa91905b808211156143f65760008160009055506001016143de565b5090565b9056fe456e756d657261626c655365743a20696e646578206f7574206f6620626f756e64734552433732313a207472616e7366657220746f206e6f6e20455243373231526563656976657220696d706c656d656e7465724552433732313a207472616e7366657220746f20746865207a65726f20616464726573734e6f7420656e6f756768204c494e4b202d2066696c6c20636f6e7472616374207769746820666175636574416464726573733a20696e73756666696369656e742062616c616e636520666f722063616c6c4552433732313a206f70657261746f7220717565727920666f72206e6f6e6578697374656e7420746f6b656e4552433732313a20617070726f76652063616c6c6572206973206e6f74206f776e6572206e6f7220617070726f76656420666f7220616c6c4552433732313a2062616c616e636520717565727920666f7220746865207a65726f20616464726573734552433732313a206f776e657220717565727920666f72206e6f6e6578697374656e7420746f6b656e456e756d657261626c654d61703a20696e646578206f7574206f6620626f756e64734552433732313a20617070726f76656420717565727920666f72206e6f6e6578697374656e7420746f6b656e4552433732313a207472616e73666572206f6620746f6b656e2074686174206973206e6f74206f776e4552433732314d657461646174613a2055524920717565727920666f72206e6f6e6578697374656e7420746f6b656e4552433732313a20617070726f76616c20746f2063757272656e74206f776e65724552433732313a207472616e736665722063616c6c6572206973206e6f74206f776e6572206e6f7220617070726f766564a2646970667358221220aa67ea146a60c4fe2c8c2893e260b3dcc6f30ac671fb4028d2852c813a7a0d1a64736f6c63430006070033",
  "devdoc": {
    "methods": {
      "approve(address,uint256)": {
        "details": "See {IERC721-approve}."
      },
      "balanceOf(address)": {
        "details": "See {IERC721-balanceOf}."
      },
      "baseURI()": {
        "details": "Returns the base URI set via {_setBaseURI}. This will be automatically added as a prefix in {tokenURI} to each token's URI, or to the token ID if no specific URI is set for that token ID."
      },
      "getApproved(uint256)": {
        "details": "See {IERC721-getApproved}."
      },
      "isApprovedForAll(address,address)": {
        "details": "See {IERC721-isApprovedForAll}."
      },
      "name()": {
        "details": "See {IERC721Metadata-name}."
      },
      "ownerOf(uint256)": {
        "details": "See {IERC721-ownerOf}."
      },
      "safeTransferFrom(address,address,uint256)": {
        "details": "See {IERC721-safeTransferFrom}."
      },
      "safeTransferFrom(address,address,uint256,bytes)": {
        "details": "See {IERC721-safeTransferFrom}."
      },
      "setApprovalForAll(address,bool)": {
        "details": "See {IERC721-setApprovalForAll}."
      },
      "supportsInterface(bytes4)": {
        "details": "See {IERC165-supportsInterface}.     * Time complexity O(1), guaranteed to always use less than 30 000 gas."
      },
      "symbol()": {
        "details": "See {IERC721Metadata-symbol}."
      },
      "tokenByIndex(uint256)": {
        "details": "See {IERC721Enumerable-tokenByIndex}."
      },
      "tokenOfOwnerByIndex(address,uint256)": {
        "details": "See {IERC721Enumerable-tokenOfOwnerByIndex}."
      },
      "tokenURI(uint256)": {
        "details": "See {IERC721Metadata-tokenURI}."
      },
      "totalSupply()": {
        "details": "See {IERC721Enumerable-totalSupply}."
      },
      "transferFrom(address,address,uint256)": {
        "details": "See {IERC721-transferFrom}."
      }
    }
  },
  "userdoc": {
    "methods": {
      "constructor": "Constructor inherits VRFConsumerBase      * Network: Kovan Chainlink VRF Coordinator address: 0xdD3782915140c8f3b190B5D67eAc6dc5760C46E9 LINK token address:                0xa36085F69e2889c224210F603D836748e7dC0088 Key Hash: 0x6c3699283bda56ad74f6b855546325b68d482e983852a7a82979cc4807b641f4",
      "getRandomNumber(uint256)": {
        "notice": "Requests randomness from a user-provided seed"
      },
      "withdrawLink()": {
        "notice": "Withdraw LINK from this contract      * DO NOT USE THIS IN PRODUCTION AS IT CAN BE CALLED BY ANY ADDRESS. THIS IS PURELY FOR EXAMPLE PURPOSES."
      }
    }
  },
  "storageLayout": {
    "storage": [
      {
        "astId": 81,
        "contract": "contracts/PhotoFactory.sol:PhotoFactory",
        "label": "nonces",
        "offset": 0,
        "slot": "0",
        "type": "t_mapping(t_bytes32,t_uint256)"
      },
      {
        "astId": 833,
        "contract": "contracts/PhotoFactory.sol:PhotoFactory",
        "label": "_supportedInterfaces",
        "offset": 0,
        "slot": "1",
        "type": "t_mapping(t_bytes4,t_bool)"
      },
      {
        "astId": 1130,
        "contract": "contracts/PhotoFactory.sol:PhotoFactory",
        "label": "_holderTokens",
        "offset": 0,
        "slot": "2",
        "type": "t_mapping(t_address,t_struct(UintSet)3341_storage)"
      },
      {
        "astId": 1132,
        "contract": "contracts/PhotoFactory.sol:PhotoFactory",
        "label": "_tokenOwners",
        "offset": 0,
        "slot": "3",
        "type": "t_struct(UintToAddressMap)2781_storage"
      },
      {
        "astId": 1136,
        "contract": "contracts/PhotoFactory.sol:PhotoFactory",
        "label": "_tokenApprovals",
        "offset": 0,
        "slot": "5",
        "type": "t_mapping(t_uint256,t_address)"
      },
      {
        "astId": 1142,
        "contract": "contracts/PhotoFactory.sol:PhotoFactory",
        "label": "_operatorApprovals",
        "offset": 0,
        "slot": "6",
        "type": "t_mapping(t_address,t_mapping(t_address,t_bool))"
      },
      {
        "astId": 1144,
        "contract": "contracts/PhotoFactory.sol:PhotoFactory",
        "label": "_name",
        "offset": 0,
        "slot": "7",
        "type": "t_string_storage"
      },
      {
        "astId": 1146,
        "contract": "contracts/PhotoFactory.sol:PhotoFactory",
        "label": "_symbol",
        "offset": 0,
        "slot": "8",
        "type": "t_string_storage"
      },
      {
        "astId": 1150,
        "contract": "contracts/PhotoFactory.sol:PhotoFactory",
        "label": "_tokenURIs",
        "offset": 0,
        "slot": "9",
        "type": "t_mapping(t_uint256,t_string_storage)"
      },
      {
        "astId": 1152,
        "contract": "contracts/PhotoFactory.sol:PhotoFactory",
        "label": "_baseURI",
        "offset": 0,
        "slot": "10",
        "type": "t_string_storage"
      },
      {
        "astId": 3840,
        "contract": "contracts/PhotoFactory.sol:PhotoFactory",
        "label": "urls",
        "offset": 0,
        "slot": "11",
        "type": "t_array(t_string_storage)dyn_storage"
      },
      {
        "astId": 3843,
        "contract": "contracts/PhotoFactory.sol:PhotoFactory",
        "label": "titles",
        "offset": 0,
        "slot": "12",
        "type": "t_array(t_string_storage)dyn_storage"
      },
      {
        "astId": 3847,
        "contract": "contracts/PhotoFactory.sol:PhotoFactory",
        "label": "_urlExists",
        "offset": 0,
        "slot": "13",
        "type": "t_mapping(t_string_memory_ptr,t_bool)"
      },
      {
        "astId": 3538,
        "contract": "contracts/PhotoFactory.sol:PhotoFactory",
        "label": "photoNFT",
        "offset": 0,
        "slot": "14",
        "type": "t_contract(PhotoNFT)3902"
      },
      {
        "astId": 3540,
        "contract": "contracts/PhotoFactory.sol:PhotoFactory",
        "label": "owner",
        "offset": 0,
        "slot": "15",
        "type": "t_address"
      },
      {
        "astId": 3543,
        "contract": "contracts/PhotoFactory.sol:PhotoFactory",
        "label": "baseAmount",
        "offset": 0,
        "slot": "16",
        "type": "t_uint256"
      },
      {
        "astId": 3545,
        "contract": "contracts/PhotoFactory.sol:PhotoFactory",
        "label": "totalBalance",
        "offset": 0,
        "slot": "17",
        "type": "t_uint256"
      },
      {
        "astId": 3548,
        "contract": "contracts/PhotoFactory.sol:PhotoFactory",
        "label": "stakers",
        "offset": 0,
        "slot": "18",
        "type": "t_array(t_address)dyn_storage"
      },
      {
        "astId": 3550,
        "contract": "contracts/PhotoFactory.sol:PhotoFactory",
        "label": "currentMinter",
        "offset": 0,
        "slot": "19",
        "type": "t_address"
      },
      {
        "astId": 3554,
        "contract": "contracts/PhotoFactory.sol:PhotoFactory",
        "label": "isStaking",
        "offset": 0,
        "slot": "20",
        "type": "t_mapping(t_address,t_bool)"
      },
      {
        "astId": 3558,
        "contract": "contracts/PhotoFactory.sol:PhotoFactory",
        "label": "isRequestId",
        "offset": 0,
        "slot": "21",
        "type": "t_mapping(t_uint256,t_bool)"
      },
      {
        "astId": 3560,
        "contract": "contracts/PhotoFactory.sol:PhotoFactory",
        "label": "keyHash",
        "offset": 0,
        "slot": "22",
        "type": "t_bytes32"
      },
      {
        "astId": 3562,
        "contract": "contracts/PhotoFactory.sol:PhotoFactory",
        "label": "fee",
        "offset": 0,
        "slot": "23",
        "type": "t_uint256"
      },
      {
        "astId": 3564,
        "contract": "contracts/PhotoFactory.sol:PhotoFactory",
        "label": "randomResult",
        "offset": 0,
        "slot": "24",
        "type": "t_uint256"
      },
      {
        "astId": 3793,
        "contract": "contracts/PhotoFactory.sol:PhotoFactory",
        "label": "nonce",
        "offset": 0,
        "slot": "25",
        "type": "t_uint256"
      }
    ],
    "types": {
      "t_address": {
        "encoding": "inplace",
        "label": "address",
        "numberOfBytes": "20"
      },
      "t_array(t_address)dyn_storage": {
        "base": "t_address",
        "encoding": "dynamic_array",
        "label": "address[]",
        "numberOfBytes": "32"
      },
      "t_array(t_bytes32)dyn_storage": {
        "base": "t_bytes32",
        "encoding": "dynamic_array",
        "label": "bytes32[]",
        "numberOfBytes": "32"
      },
      "t_array(t_string_storage)dyn_storage": {
        "base": "t_string_storage",
        "encoding": "dynamic_array",
        "label": "string[]",
        "numberOfBytes": "32"
      },
      "t_array(t_struct(MapEntry)2509_storage)dyn_storage": {
        "base": "t_struct(MapEntry)2509_storage",
        "encoding": "dynamic_array",
        "label": "struct EnumerableMap.MapEntry[]",
        "numberOfBytes": "32"
      },
      "t_bool": {
        "encoding": "inplace",
        "label": "bool",
        "numberOfBytes": "1"
      },
      "t_bytes32": {
        "encoding": "inplace",
        "label": "bytes32",
        "numberOfBytes": "32"
      },
      "t_bytes4": {
        "encoding": "inplace",
        "label": "bytes4",
        "numberOfBytes": "4"
      },
      "t_contract(PhotoNFT)3902": {
        "encoding": "inplace",
        "label": "contract PhotoNFT",
        "numberOfBytes": "20"
      },
      "t_mapping(t_address,t_bool)": {
        "encoding": "mapping",
        "key": "t_address",
        "label": "mapping(address => bool)",
        "numberOfBytes": "32",
        "value": "t_bool"
      },
      "t_mapping(t_address,t_mapping(t_address,t_bool))": {
        "encoding": "mapping",
        "key": "t_address",
        "label": "mapping(address => mapping(address => bool))",
        "numberOfBytes": "32",
        "value": "t_mapping(t_address,t_bool)"
      },
      "t_mapping(t_address,t_struct(UintSet)3341_storage)": {
        "encoding": "mapping",
        "key": "t_address",
        "label": "mapping(address => struct EnumerableSet.UintSet)",
        "numberOfBytes": "32",
        "value": "t_struct(UintSet)3341_storage"
      },
      "t_mapping(t_bytes32,t_uint256)": {
        "encoding": "mapping",
        "key": "t_bytes32",
        "label": "mapping(bytes32 => uint256)",
        "numberOfBytes": "32",
        "value": "t_uint256"
      },
      "t_mapping(t_bytes4,t_bool)": {
        "encoding": "mapping",
        "key": "t_bytes4",
        "label": "mapping(bytes4 => bool)",
        "numberOfBytes": "32",
        "value": "t_bool"
      },
      "t_mapping(t_string_memory_ptr,t_bool)": {
        "encoding": "mapping",
        "key": "t_string_memory_ptr",
        "label": "mapping(string => bool)",
        "numberOfBytes": "32",
        "value": "t_bool"
      },
      "t_mapping(t_uint256,t_address)": {
        "encoding": "mapping",
        "key": "t_uint256",
        "label": "mapping(uint256 => address)",
        "numberOfBytes": "32",
        "value": "t_address"
      },
      "t_mapping(t_uint256,t_bool)": {
        "encoding": "mapping",
        "key": "t_uint256",
        "label": "mapping(uint256 => bool)",
        "numberOfBytes": "32",
        "value": "t_bool"
      },
      "t_mapping(t_uint256,t_string_storage)": {
        "encoding": "mapping",
        "key": "t_uint256",
        "label": "mapping(uint256 => string)",
        "numberOfBytes": "32",
        "value": "t_string_storage"
      },
      "t_string_memory_ptr": {
        "encoding": "bytes",
        "label": "string",
        "numberOfBytes": "32"
      },
      "t_string_storage": {
        "encoding": "bytes",
        "label": "string",
        "numberOfBytes": "32"
      },
      "t_struct(Map)2517_storage": {
        "encoding": "inplace",
        "label": "struct EnumerableMap.Map",
        "members": [
          {
            "astId": 2512,
            "contract": "contracts/PhotoFactory.sol:PhotoFactory",
            "label": "_entries",
            "offset": 0,
            "slot": "0",
            "type": "t_array(t_struct(MapEntry)2509_storage)dyn_storage"
          },
          {
            "astId": 2516,
            "contract": "contracts/PhotoFactory.sol:PhotoFactory",
            "label": "_indexes",
            "offset": 0,
            "slot": "1",
            "type": "t_mapping(t_bytes32,t_uint256)"
          }
        ],
        "numberOfBytes": "64"
      },
      "t_struct(MapEntry)2509_storage": {
        "encoding": "inplace",
        "label": "struct EnumerableMap.MapEntry",
        "members": [
          {
            "astId": 2506,
            "contract": "contracts/PhotoFactory.sol:PhotoFactory",
            "label": "_key",
            "offset": 0,
            "slot": "0",
            "type": "t_bytes32"
          },
          {
            "astId": 2508,
            "contract": "contracts/PhotoFactory.sol:PhotoFactory",
            "label": "_value",
            "offset": 0,
            "slot": "1",
            "type": "t_bytes32"
          }
        ],
        "numberOfBytes": "64"
      },
      "t_struct(Set)2967_storage": {
        "encoding": "inplace",
        "label": "struct EnumerableSet.Set",
        "members": [
          {
            "astId": 2962,
            "contract": "contracts/PhotoFactory.sol:PhotoFactory",
            "label": "_values",
            "offset": 0,
            "slot": "0",
            "type": "t_array(t_bytes32)dyn_storage"
          },
          {
            "astId": 2966,
            "contract": "contracts/PhotoFactory.sol:PhotoFactory",
            "label": "_indexes",
            "offset": 0,
            "slot": "1",
            "type": "t_mapping(t_bytes32,t_uint256)"
          }
        ],
        "numberOfBytes": "64"
      },
      "t_struct(UintSet)3341_storage": {
        "encoding": "inplace",
        "label": "struct EnumerableSet.UintSet",
        "members": [
          {
            "astId": 3340,
            "contract": "contracts/PhotoFactory.sol:PhotoFactory",
            "label": "_inner",
            "offset": 0,
            "slot": "0",
            "type": "t_struct(Set)2967_storage"
          }
        ],
        "numberOfBytes": "64"
      },
      "t_struct(UintToAddressMap)2781_storage": {
        "encoding": "inplace",
        "label": "struct EnumerableMap.UintToAddressMap",
        "members": [
          {
            "astId": 2780,
            "contract": "contracts/PhotoFactory.sol:PhotoFactory",
            "label": "_inner",
            "offset": 0,
            "slot": "0",
            "type": "t_struct(Map)2517_storage"
          }
        ],
        "numberOfBytes": "64"
      },
      "t_uint256": {
        "encoding": "inplace",
        "label": "uint256",
        "numberOfBytes": "32"
      }
    }
  }
}